{
  "contractName": "Token",
  "abi": [
    {
      "inputs": [
        {
          "internalType": "string",
          "name": "_name",
          "type": "string"
        },
        {
          "internalType": "string",
          "name": "_symbol",
          "type": "string"
        },
        {
          "internalType": "uint256",
          "name": "_totalSupply",
          "type": "uint256"
        }
      ],
      "stateMutability": "nonpayable",
      "type": "constructor"
    },
    {
      "anonymous": false,
      "inputs": [
        {
          "indexed": true,
          "internalType": "address",
          "name": "owner",
          "type": "address"
        },
        {
          "indexed": true,
          "internalType": "address",
          "name": "spender",
          "type": "address"
        },
        {
          "indexed": false,
          "internalType": "uint256",
          "name": "value",
          "type": "uint256"
        }
      ],
      "name": "Approval",
      "type": "event"
    },
    {
      "anonymous": false,
      "inputs": [
        {
          "indexed": true,
          "internalType": "address",
          "name": "previousOwner",
          "type": "address"
        },
        {
          "indexed": true,
          "internalType": "address",
          "name": "newOwner",
          "type": "address"
        }
      ],
      "name": "OwnershipTransferred",
      "type": "event"
    },
    {
      "anonymous": false,
      "inputs": [
        {
          "indexed": true,
          "internalType": "address",
          "name": "from",
          "type": "address"
        },
        {
          "indexed": true,
          "internalType": "address",
          "name": "to",
          "type": "address"
        },
        {
          "indexed": false,
          "internalType": "uint256",
          "name": "value",
          "type": "uint256"
        }
      ],
      "name": "Transfer",
      "type": "event"
    },
    {
      "inputs": [],
      "name": "decimals",
      "outputs": [
        {
          "internalType": "uint8",
          "name": "",
          "type": "uint8"
        }
      ],
      "stateMutability": "view",
      "type": "function",
      "constant": true
    },
    {
      "inputs": [],
      "name": "name",
      "outputs": [
        {
          "internalType": "string",
          "name": "",
          "type": "string"
        }
      ],
      "stateMutability": "view",
      "type": "function",
      "constant": true
    },
    {
      "inputs": [],
      "name": "owner",
      "outputs": [
        {
          "internalType": "address",
          "name": "",
          "type": "address"
        }
      ],
      "stateMutability": "view",
      "type": "function",
      "constant": true
    },
    {
      "inputs": [],
      "name": "symbol",
      "outputs": [
        {
          "internalType": "string",
          "name": "",
          "type": "string"
        }
      ],
      "stateMutability": "view",
      "type": "function",
      "constant": true
    },
    {
      "inputs": [],
      "name": "totalSupply",
      "outputs": [
        {
          "internalType": "uint256",
          "name": "",
          "type": "uint256"
        }
      ],
      "stateMutability": "view",
      "type": "function",
      "constant": true
    },
    {
      "inputs": [
        {
          "internalType": "address",
          "name": "_newOwner",
          "type": "address"
        }
      ],
      "name": "transferOwnership",
      "outputs": [],
      "stateMutability": "nonpayable",
      "type": "function"
    },
    {
      "inputs": [
        {
          "internalType": "address",
          "name": "_account",
          "type": "address"
        },
        {
          "internalType": "uint256",
          "name": "amount",
          "type": "uint256"
        }
      ],
      "name": "mint",
      "outputs": [],
      "stateMutability": "nonpayable",
      "type": "function"
    },
    {
      "inputs": [
        {
          "internalType": "address",
          "name": "account",
          "type": "address"
        }
      ],
      "name": "balanceOf",
      "outputs": [
        {
          "internalType": "uint256",
          "name": "",
          "type": "uint256"
        }
      ],
      "stateMutability": "view",
      "type": "function",
      "constant": true
    },
    {
      "inputs": [
        {
          "internalType": "address",
          "name": "to",
          "type": "address"
        },
        {
          "internalType": "uint256",
          "name": "amount",
          "type": "uint256"
        }
      ],
      "name": "transfer",
      "outputs": [
        {
          "internalType": "bool",
          "name": "",
          "type": "bool"
        }
      ],
      "stateMutability": "nonpayable",
      "type": "function"
    },
    {
      "inputs": [
        {
          "internalType": "address",
          "name": "_owner",
          "type": "address"
        },
        {
          "internalType": "address",
          "name": "_spender",
          "type": "address"
        }
      ],
      "name": "allowance",
      "outputs": [
        {
          "internalType": "uint256",
          "name": "",
          "type": "uint256"
        }
      ],
      "stateMutability": "view",
      "type": "function",
      "constant": true
    },
    {
      "inputs": [
        {
          "internalType": "address",
          "name": "spender",
          "type": "address"
        },
        {
          "internalType": "uint256",
          "name": "amount",
          "type": "uint256"
        }
      ],
      "name": "approve",
      "outputs": [
        {
          "internalType": "bool",
          "name": "",
          "type": "bool"
        }
      ],
      "stateMutability": "nonpayable",
      "type": "function"
    },
    {
      "inputs": [
        {
          "internalType": "address",
          "name": "from",
          "type": "address"
        },
        {
          "internalType": "address",
          "name": "to",
          "type": "address"
        },
        {
          "internalType": "uint256",
          "name": "amount",
          "type": "uint256"
        }
      ],
      "name": "transferFrom",
      "outputs": [
        {
          "internalType": "bool",
          "name": "",
          "type": "bool"
        }
      ],
      "stateMutability": "nonpayable",
      "type": "function"
    }
  ],
  "bytecode": "0x6080604052601260045f6101000a81548160ff021916908360ff1602179055503480156200002b575f80fd5b5060405162001cb538038062001cb5833981810160405281019062000051919062000345565b82600290816200006291906200060a565b5081600390816200007491906200060a565b50806005819055505f6200008d6200018160201b60201c565b9050815f808373ffffffffffffffffffffffffffffffffffffffff1673ffffffffffffffffffffffffffffffffffffffff1681526020019081526020015f20819055508060065f6101000a81548173ffffffffffffffffffffffffffffffffffffffff021916908373ffffffffffffffffffffffffffffffffffffffff1602179055508073ffffffffffffffffffffffffffffffffffffffff165f73ffffffffffffffffffffffffffffffffffffffff167fddf252ad1be2c89b69c2b068fc378daa952ba7f163c4a11628f55a4df523b3ef846040516200016f9190620006ff565b60405180910390a3505050506200071a565b5f33905090565b5f604051905090565b5f80fd5b5f80fd5b5f80fd5b5f80fd5b5f601f19601f8301169050919050565b7f4e487b71000000000000000000000000000000000000000000000000000000005f52604160045260245ffd5b620001e982620001a1565b810181811067ffffffffffffffff821117156200020b576200020a620001b1565b5b80604052505050565b5f6200021f62000188565b90506200022d8282620001de565b919050565b5f67ffffffffffffffff8211156200024f576200024e620001b1565b5b6200025a82620001a1565b9050602081019050919050565b5f5b838110156200028657808201518184015260208101905062000269565b5f8484015250505050565b5f620002a7620002a18462000232565b62000214565b905082815260208101848484011115620002c657620002c56200019d565b5b620002d384828562000267565b509392505050565b5f82601f830112620002f257620002f162000199565b5b81516200030484826020860162000291565b91505092915050565b5f819050919050565b62000321816200030d565b81146200032c575f80fd5b50565b5f815190506200033f8162000316565b92915050565b5f805f606084860312156200035f576200035e62000191565b5b5f84015167ffffffffffffffff8111156200037f576200037e62000195565b5b6200038d86828701620002db565b935050602084015167ffffffffffffffff811115620003b157620003b062000195565b5b620003bf86828701620002db565b9250506040620003d2868287016200032f565b9150509250925092565b5f81519050919050565b7f4e487b71000000000000000000000000000000000000000000000000000000005f52602260045260245ffd5b5f60028204905060018216806200042b57607f821691505b602082108103620004415762000440620003e6565b5b50919050565b5f819050815f5260205f209050919050565b5f6020601f8301049050919050565b5f82821b905092915050565b5f60088302620004a57fffffffffffffffffffffffffffffffffffffffffffffffffffffffffffffffff8262000468565b620004b1868362000468565b95508019841693508086168417925050509392505050565b5f819050919050565b5f620004f2620004ec620004e6846200030d565b620004c9565b6200030d565b9050919050565b5f819050919050565b6200050d83620004d2565b620005256200051c82620004f9565b84845462000474565b825550505050565b5f90565b6200053b6200052d565b6200054881848462000502565b505050565b5b818110156200056f57620005635f8262000531565b6001810190506200054e565b5050565b601f821115620005be57620005888162000447565b620005938462000459565b81016020851015620005a3578190505b620005bb620005b28562000459565b8301826200054d565b50505b505050565b5f82821c905092915050565b5f620005e05f1984600802620005c3565b1980831691505092915050565b5f620005fa8383620005cf565b9150826002028217905092915050565b6200061582620003dc565b67ffffffffffffffff811115620006315762000630620001b1565b5b6200063d825462000413565b6200064a82828562000573565b5f60209050601f83116001811462000680575f84156200066b578287015190505b620006778582620005ed565b865550620006e6565b601f198416620006908662000447565b5f5b82811015620006b95784890151825560018201915060208501945060208101905062000692565b86831015620006d95784890151620006d5601f891682620005cf565b8355505b6001600288020188555050505b505050505050565b620006f9816200030d565b82525050565b5f602082019050620007145f830184620006ee565b92915050565b61158d80620007285f395ff3fe608060405234801561000f575f80fd5b50600436106100b2575f3560e01c806370a082311161006f57806370a082311461018c5780638da5cb5b146101bc57806395d89b41146101da578063a9059cbb146101f8578063dd62ed3e14610228578063f2fde38b14610258576100b2565b806306fdde03146100b6578063095ea7b3146100d457806318160ddd1461010457806323b872dd14610122578063313ce5671461015257806340c10f1914610170575b5f80fd5b6100be610274565b6040516100cb9190610dd5565b60405180910390f35b6100ee60048036038101906100e99190610e86565b610300565b6040516100fb9190610ede565b60405180910390f35b61010c610322565b6040516101199190610f06565b60405180910390f35b61013c60048036038101906101379190610f1f565b610328565b6040516101499190610ede565b60405180910390f35b61015a610356565b6040516101679190610f8a565b60405180910390f35b61018a60048036038101906101859190610e86565b610368565b005b6101a660048036038101906101a19190610fa3565b61053f565b6040516101b39190610f06565b60405180910390f35b6101c4610584565b6040516101d19190610fdd565b60405180910390f35b6101e26105a9565b6040516101ef9190610dd5565b60405180910390f35b610212600480360381019061020d9190610e86565b610635565b60405161021f9190610ede565b60405180910390f35b610242600480360381019061023d9190610ff6565b610657565b60405161024f9190610f06565b60405180910390f35b610272600480360381019061026d9190610fa3565b6106d9565b005b6002805461028190611061565b80601f01602080910402602001604051908101604052809291908181526020018280546102ad90611061565b80156102f85780601f106102cf576101008083540402835291602001916102f8565b820191905f5260205f20905b8154815290600101906020018083116102db57829003601f168201915b505050505081565b5f8061030a6108a0565b90506103178185856108a7565b600191505092915050565b60055481565b5f806103326108a0565b905061033f858285610a6a565b61034a858585610af5565b60019150509392505050565b60045f9054906101000a900460ff1681565b6103706108a0565b73ffffffffffffffffffffffffffffffffffffffff1660065f9054906101000a900473ffffffffffffffffffffffffffffffffffffffff1673ffffffffffffffffffffffffffffffffffffffff16146103fe576040517f08c379a00000000000000000000000000000000000000000000000000000000081526004016103f5906110db565b60405180910390fd5b5f73ffffffffffffffffffffffffffffffffffffffff168273ffffffffffffffffffffffffffffffffffffffff160361046c576040517f08c379a000000000000000000000000000000000000000000000000000000000815260040161046390611143565b60405180910390fd5b8060055f82825461047d919061118e565b92505081905550805f808473ffffffffffffffffffffffffffffffffffffffff1673ffffffffffffffffffffffffffffffffffffffff1681526020019081526020015f205f8282546104cf919061118e565b925050819055508173ffffffffffffffffffffffffffffffffffffffff165f73ffffffffffffffffffffffffffffffffffffffff167fddf252ad1be2c89b69c2b068fc378daa952ba7f163c4a11628f55a4df523b3ef836040516105339190610f06565b60405180910390a35050565b5f805f8373ffffffffffffffffffffffffffffffffffffffff1673ffffffffffffffffffffffffffffffffffffffff1681526020019081526020015f20549050919050565b60065f9054906101000a900473ffffffffffffffffffffffffffffffffffffffff1681565b600380546105b690611061565b80601f01602080910402602001604051908101604052809291908181526020018280546105e290611061565b801561062d5780601f106106045761010080835404028352916020019161062d565b820191905f5260205f20905b81548152906001019060200180831161061057829003601f168201915b505050505081565b5f8061063f6108a0565b905061064c818585610af5565b600191505092915050565b5f60015f8473ffffffffffffffffffffffffffffffffffffffff1673ffffffffffffffffffffffffffffffffffffffff1681526020019081526020015f205f8373ffffffffffffffffffffffffffffffffffffffff1673ffffffffffffffffffffffffffffffffffffffff1681526020019081526020015f2054905092915050565b6106e16108a0565b73ffffffffffffffffffffffffffffffffffffffff1660065f9054906101000a900473ffffffffffffffffffffffffffffffffffffffff1673ffffffffffffffffffffffffffffffffffffffff161461076f576040517f08c379a0000000000000000000000000000000000000000000000000000000008152600401610766906110db565b60405180910390fd5b5f73ffffffffffffffffffffffffffffffffffffffff168173ffffffffffffffffffffffffffffffffffffffff16036107dd576040517f08c379a00000000000000000000000000000000000000000000000000000000081526004016107d49061120b565b60405180910390fd5b5f60065f9054906101000a900473ffffffffffffffffffffffffffffffffffffffff1690508160065f6101000a81548173ffffffffffffffffffffffffffffffffffffffff021916908373ffffffffffffffffffffffffffffffffffffffff1602179055508173ffffffffffffffffffffffffffffffffffffffff168173ffffffffffffffffffffffffffffffffffffffff167f8be0079c531659141344cd1fd0a4f28419497f9722a3daafe3b4186f6b6457e060405160405180910390a35050565b5f33905090565b5f73ffffffffffffffffffffffffffffffffffffffff168373ffffffffffffffffffffffffffffffffffffffff1603610915576040517f08c379a000000000000000000000000000000000000000000000000000000000815260040161090c90611299565b60405180910390fd5b5f73ffffffffffffffffffffffffffffffffffffffff168273ffffffffffffffffffffffffffffffffffffffff1603610983576040517f08c379a000000000000000000000000000000000000000000000000000000000815260040161097a90611327565b60405180910390fd5b8060015f8573ffffffffffffffffffffffffffffffffffffffff1673ffffffffffffffffffffffffffffffffffffffff1681526020019081526020015f205f8473ffffffffffffffffffffffffffffffffffffffff1673ffffffffffffffffffffffffffffffffffffffff1681526020019081526020015f20819055508173ffffffffffffffffffffffffffffffffffffffff168373ffffffffffffffffffffffffffffffffffffffff167f8c5be1e5ebec7d5bd14f71427d1e84f3dd0314c0f7b2291e5b200ac8c7c3b92583604051610a5d9190610f06565b60405180910390a3505050565b5f610a758484610657565b90507fffffffffffffffffffffffffffffffffffffffffffffffffffffffffffffffff8114610aef5781811015610ae1576040517f08c379a0000000000000000000000000000000000000000000000000000000008152600401610ad89061138f565b60405180910390fd5b610aee84848484036108a7565b5b50505050565b5f73ffffffffffffffffffffffffffffffffffffffff168373ffffffffffffffffffffffffffffffffffffffff1603610b63576040517f08c379a0000000000000000000000000000000000000000000000000000000008152600401610b5a9061141d565b60405180910390fd5b5f73ffffffffffffffffffffffffffffffffffffffff168273ffffffffffffffffffffffffffffffffffffffff1603610bd1576040517f08c379a0000000000000000000000000000000000000000000000000000000008152600401610bc8906114ab565b60405180910390fd5b5f805f8573ffffffffffffffffffffffffffffffffffffffff1673ffffffffffffffffffffffffffffffffffffffff1681526020019081526020015f2054905081811015610c54576040517f08c379a0000000000000000000000000000000000000000000000000000000008152600401610c4b90611539565b60405180910390fd5b8181035f808673ffffffffffffffffffffffffffffffffffffffff1673ffffffffffffffffffffffffffffffffffffffff1681526020019081526020015f2081905550815f808573ffffffffffffffffffffffffffffffffffffffff1673ffffffffffffffffffffffffffffffffffffffff1681526020019081526020015f205f82825401925050819055508273ffffffffffffffffffffffffffffffffffffffff168473ffffffffffffffffffffffffffffffffffffffff167fddf252ad1be2c89b69c2b068fc378daa952ba7f163c4a11628f55a4df523b3ef84604051610d3d9190610f06565b60405180910390a350505050565b5f81519050919050565b5f82825260208201905092915050565b5f5b83811015610d82578082015181840152602081019050610d67565b5f8484015250505050565b5f601f19601f8301169050919050565b5f610da782610d4b565b610db18185610d55565b9350610dc1818560208601610d65565b610dca81610d8d565b840191505092915050565b5f6020820190508181035f830152610ded8184610d9d565b905092915050565b5f80fd5b5f73ffffffffffffffffffffffffffffffffffffffff82169050919050565b5f610e2282610df9565b9050919050565b610e3281610e18565b8114610e3c575f80fd5b50565b5f81359050610e4d81610e29565b92915050565b5f819050919050565b610e6581610e53565b8114610e6f575f80fd5b50565b5f81359050610e8081610e5c565b92915050565b5f8060408385031215610e9c57610e9b610df5565b5b5f610ea985828601610e3f565b9250506020610eba85828601610e72565b9150509250929050565b5f8115159050919050565b610ed881610ec4565b82525050565b5f602082019050610ef15f830184610ecf565b92915050565b610f0081610e53565b82525050565b5f602082019050610f195f830184610ef7565b92915050565b5f805f60608486031215610f3657610f35610df5565b5b5f610f4386828701610e3f565b9350506020610f5486828701610e3f565b9250506040610f6586828701610e72565b9150509250925092565b5f60ff82169050919050565b610f8481610f6f565b82525050565b5f602082019050610f9d5f830184610f7b565b92915050565b5f60208284031215610fb857610fb7610df5565b5b5f610fc584828501610e3f565b91505092915050565b610fd781610e18565b82525050565b5f602082019050610ff05f830184610fce565b92915050565b5f806040838503121561100c5761100b610df5565b5b5f61101985828601610e3f565b925050602061102a85828601610e3f565b9150509250929050565b7f4e487b71000000000000000000000000000000000000000000000000000000005f52602260045260245ffd5b5f600282049050600182168061107857607f821691505b60208210810361108b5761108a611034565b5b50919050565b7f4f776e61626c653a2063616c6c6572206973206e6f7420746865206f776e65725f82015250565b5f6110c5602083610d55565b91506110d082611091565b602082019050919050565b5f6020820190508181035f8301526110f2816110b9565b9050919050565b7f4d696e7420746f207a65726f2061646472657373206e6f7420616c6c6f7765645f82015250565b5f61112d602083610d55565b9150611138826110f9565b602082019050919050565b5f6020820190508181035f83015261115a81611121565b9050919050565b7f4e487b71000000000000000000000000000000000000000000000000000000005f52601160045260245ffd5b5f61119882610e53565b91506111a383610e53565b92508282019050808211156111bb576111ba611161565b5b92915050565b7f4e6577206f776e6572206973207a65726f2061646472657373000000000000005f82015250565b5f6111f5601983610d55565b9150611200826111c1565b602082019050919050565b5f6020820190508181035f830152611222816111e9565b9050919050565b7f45524332303a20617070726f76652066726f6d20746865207a65726f206164645f8201527f7265737300000000000000000000000000000000000000000000000000000000602082015250565b5f611283602483610d55565b915061128e82611229565b604082019050919050565b5f6020820190508181035f8301526112b081611277565b9050919050565b7f45524332303a20617070726f766520746f20746865207a65726f2061646472655f8201527f7373000000000000000000000000000000000000000000000000000000000000602082015250565b5f611311602283610d55565b915061131c826112b7565b604082019050919050565b5f6020820190508181035f83015261133e81611305565b9050919050565b7f45524332303a20696e73756666696369656e7420616c6c6f77616e63650000005f82015250565b5f611379601d83610d55565b915061138482611345565b602082019050919050565b5f6020820190508181035f8301526113a68161136d565b9050919050565b7f45524332303a207472616e736665722066726f6d20746865207a65726f2061645f8201527f6472657373000000000000000000000000000000000000000000000000000000602082015250565b5f611407602583610d55565b9150611412826113ad565b604082019050919050565b5f6020820190508181035f830152611434816113fb565b9050919050565b7f45524332303a207472616e7366657220746f20746865207a65726f20616464725f8201527f6573730000000000000000000000000000000000000000000000000000000000602082015250565b5f611495602383610d55565b91506114a08261143b565b604082019050919050565b5f6020820190508181035f8301526114c281611489565b9050919050565b7f45524332303a207472616e7366657220616d6f756e74206578636565647320625f8201527f616c616e63650000000000000000000000000000000000000000000000000000602082015250565b5f611523602683610d55565b915061152e826114c9565b604082019050919050565b5f6020820190508181035f83015261155081611517565b905091905056fea2646970667358221220b4a73559d03697964e683216f443b6f7912a31ad82ed64068f36eed71e10372664736f6c63430008150033",
  "immutableReferences": {},
  "source": "// SPDX-License-Identifier: MIT\npragma solidity >=0.8.17 <0.9.0;\n\nimport \"@openzeppelin/contracts/token/ERC20/IERC20.sol\";\nimport \"@openzeppelin/contracts/token/ERC20/extensions/IERC20Metadata.sol\";\nimport \"@openzeppelin/contracts/utils/Context.sol\";\n\ncontract Token is Context, IERC20, IERC20Metadata {\n    mapping(address => uint256) private balances;\n    mapping(address => mapping(address => uint256)) private allowances;\n\n    string public name;\n    string public symbol;\n    uint8 public decimals = 18;\n    uint256 public totalSupply;\n    address public owner;\n    event OwnershipTransferred(address indexed previousOwner, address indexed newOwner);\n    constructor(string memory _name, string memory _symbol, uint256 _totalSupply) {\n        name = _name;\n        symbol = _symbol;\n        totalSupply = _totalSupply;\n        //   \"\" \n        address creator = _msgSender();\n        balances[creator] = _totalSupply;\n        owner = creator;\n        //      (mint)\n        emit Transfer(address(0), creator, _totalSupply);\n\n    }\n    modifier onlyOwner() {\n        require(owner == _msgSender(), \"Ownable: caller is not the owner\");\n        _;\n    }\n\n    function transferOwnership(address _newOwner) public onlyOwner {\n        require(_newOwner != address(0), \"New owner is zero address\");\n        address oldOwner = owner;\n        owner = _newOwner;\n        emit OwnershipTransferred(oldOwner, _newOwner);\n    }\n    function mint(address _account, uint256 amount) public onlyOwner {\n        require(_account != address(0), \"Mint to zero address not allowed\");\n\n        totalSupply += amount;             //    \n        balances[_account] += amount;      //    \n\n        emit Transfer(address(0), _account, amount); //  \"\"\n    }\n    function balanceOf(address account) public view override returns (uint256) {\n        return balances[account];\n    }\n\n    function transfer(address to, uint256 amount) public override returns (bool) {\n        address from = _msgSender();\n        _transfer(from, to, amount);\n        return true;\n    }\n\n    function allowance(address _owner, address _spender) public view override returns (uint256) {\n        return allowances[_owner][_spender];\n    }\n\n    function approve(address spender, uint256 amount) public override returns (bool) {\n        address owner = _msgSender();\n        _approve(owner, spender, amount);\n        return true;\n    }\n\n    function transferFrom(address from, address to, uint256 amount) public override returns (bool) {\n        address spender = _msgSender();\n        _spendAllowance(from, spender, amount);\n        _transfer(from, to, amount);\n        return true;\n    }\n\n    function _transfer(address from, address to, uint256 amount) internal {\n        require(from != address(0), \"ERC20: transfer from the zero address\");\n        require(to != address(0), \"ERC20: transfer to the zero address\");\n\n        uint256 fromBalance = balances[from];\n        require(fromBalance >= amount, \"ERC20: transfer amount exceeds balance\");\n\n        unchecked {\n            balances[from] = fromBalance - amount;\n            balances[to] += amount;\n        }\n\n        emit Transfer(from, to, amount);\n    }\n\n    function _approve(address owner, address spender, uint256 amount) internal {\n        require(owner != address(0), \"ERC20: approve from the zero address\");\n        require(spender != address(0), \"ERC20: approve to the zero address\");\n        allowances[owner][spender] = amount;\n        emit Approval(owner, spender, amount);\n    }\n\n    function _spendAllowance(address owner, address spender, uint256 amount) internal {\n        uint256 currentAllowance = allowance(owner, spender);\n        if (currentAllowance != type(uint256).max) {\n            require(currentAllowance >= amount, \"ERC20: insufficient allowance\");\n            unchecked {\n                _approve(owner, spender, currentAllowance - amount);\n            }\n        }\n    }\n}\n\n",
  "sourcePath": "/home/proxyuser/lab3/token-contract/contracts/Token.sol",
  "compiler": {
    "name": "solc",
    "version": "0.8.21+commit.d9974bed.Emscripten.clang"
  },
  "schemaVersion": "3.4.16",
  "updatedAt": "2025-10-10T16:21:21.017Z",
  "networkType": "ethereum",
  "devdoc": {
    "events": {
      "Approval(address,address,uint256)": {
        "details": "Emitted when the allowance of a `spender` for an `owner` is set by a call to {approve}. `value` is the new allowance."
      },
      "Transfer(address,address,uint256)": {
        "details": "Emitted when `value` tokens are moved from one account (`from`) to another (`to`). Note that `value` may be zero."
      }
    },
    "kind": "dev",
    "methods": {
      "balanceOf(address)": {
        "details": "Returns the value of tokens owned by `account`."
      }
    },
    "stateVariables": {
      "decimals": {
        "details": "Returns the decimals places of the token."
      },
      "name": {
        "details": "Returns the name of the token."
      },
      "symbol": {
        "details": "Returns the symbol of the token."
      },
      "totalSupply": {
        "details": "Returns the value of tokens in existence."
      }
    },
    "version": 1
  },
  "userdoc": {
    "kind": "user",
    "methods": {},
    "version": 1
  },
  "db": {
    "callBytecode": {
      "id": "0x98a0f16e044aacb951b2afe5dc0b677dd1cc3b5c0ef9e0dc2eee2d584ef8376a"
    },
    "createBytecode": {
      "id": "0x52b2efaffb88cdfb7a65be9695dc1dbe74176e1a406320d127f3cddbdd113b3c"
    },
    "contract": {
      "id": "0xf044b6bdd27fb2c7b9a7f2017b7394038e668395cac272847e1cfa83361c558c"
    }
  }
}